{
  "contractName": "TweetAccount",
  "abi": [
    {
      "inputs": [],
      "payable": false,
      "stateMutability": "nonpayable",
      "type": "constructor"
    },
    {
      "constant": true,
      "inputs": [],
      "name": "isAdmin",
      "outputs": [
        {
          "internalType": "bool",
          "name": "",
          "type": "bool"
        }
      ],
      "payable": false,
      "stateMutability": "view",
      "type": "function"
    },
    {
      "constant": false,
      "inputs": [
        {
          "internalType": "string",
          "name": "tweetString",
          "type": "string"
        }
      ],
      "name": "tweet",
      "outputs": [
        {
          "internalType": "int256",
          "name": "result",
          "type": "int256"
        }
      ],
      "payable": false,
      "stateMutability": "nonpayable",
      "type": "function"
    },
    {
      "constant": true,
      "inputs": [
        {
          "internalType": "uint256",
          "name": "tweetId",
          "type": "uint256"
        }
      ],
      "name": "getTweet",
      "outputs": [
        {
          "internalType": "string",
          "name": "tweetString",
          "type": "string"
        },
        {
          "internalType": "uint256",
          "name": "timestamp",
          "type": "uint256"
        }
      ],
      "payable": false,
      "stateMutability": "view",
      "type": "function"
    },
    {
      "constant": true,
      "inputs": [],
      "name": "getLatestTweet",
      "outputs": [
        {
          "internalType": "string",
          "name": "tweetString",
          "type": "string"
        },
        {
          "internalType": "uint256",
          "name": "timestamp",
          "type": "uint256"
        },
        {
          "internalType": "uint256",
          "name": "numberOfTweets",
          "type": "uint256"
        }
      ],
      "payable": false,
      "stateMutability": "view",
      "type": "function"
    },
    {
      "constant": true,
      "inputs": [],
      "name": "getOwnerAddress",
      "outputs": [
        {
          "internalType": "address",
          "name": "adminAddress",
          "type": "address"
        }
      ],
      "payable": false,
      "stateMutability": "view",
      "type": "function"
    },
    {
      "constant": true,
      "inputs": [],
      "name": "getNumberOfTweets",
      "outputs": [
        {
          "internalType": "uint256",
          "name": "numberOfTweets",
          "type": "uint256"
        }
      ],
      "payable": false,
      "stateMutability": "view",
      "type": "function"
    },
    {
      "constant": false,
      "inputs": [
        {
          "internalType": "address payable",
          "name": "receiver",
          "type": "address"
        }
      ],
      "name": "adminRetrieveDonations",
      "outputs": [],
      "payable": false,
      "stateMutability": "nonpayable",
      "type": "function"
    },
    {
      "constant": false,
      "inputs": [],
      "name": "adminDeleteAccount",
      "outputs": [],
      "payable": false,
      "stateMutability": "nonpayable",
      "type": "function"
    }
  ],
  "bytecode": "0x608060405234801561001057600080fd5b50600060018190555033600260006101000a81548173ffffffffffffffffffffffffffffffffffffffff021916908373ffffffffffffffffffffffffffffffffffffffff1602179055506107f8806100696000396000f3fe608060405234801561001057600080fd5b50600436106100885760003560e01c8063b6db75a01161005b578063b6db75a0146101b6578063c3ad5ecb146101d8578063ca7dc5b114610286578063fb46d4c5146102a457610088565b80630c4f65bd1461008d5780633e450fff146100d75780635c3e426c146100e1578063ae978f0814610125575b600080fd5b610095610373565b604051808273ffffffffffffffffffffffffffffffffffffffff1673ffffffffffffffffffffffffffffffffffffffff16815260200191505060405180910390f35b6100df61039d565b005b610123600480360360208110156100f757600080fd5b81019080803573ffffffffffffffffffffffffffffffffffffffff1690602001909291905050506103e7565b005b61012d61043f565b6040518080602001848152602001838152602001828103825285818151815260200191508051906020019080838360005b8381101561017957808201518184015260208101905061015e565b50505050905090810190601f1680156101a65780820380516001836020036101000a031916815260200191505b5094505050505060405180910390f35b6101be61051e565b604051808215151515815260200191505060405180910390f35b610204600480360360208110156101ee57600080fd5b8101908080359060200190929190505050610576565b6040518080602001838152602001828103825284818151815260200191508051906020019080838360005b8381101561024a57808201518184015260208101905061022f565b50505050905090810190601f1680156102775780820380516001836020036101000a031916815260200191505b50935050505060405180910390f35b61028e610647565b6040518082815260200191505060405180910390f35b61035d600480360360208110156102ba57600080fd5b81019080803590602001906401000000008111156102d757600080fd5b8201836020820111156102e957600080fd5b8035906020019184600183028401116401000000008311171561030b57600080fd5b91908080601f016020809104026020016040519081016040528093929190818152602001838380828437600081840152601f19601f820116905080830192505050505050509192919290505050610651565b6040518082815260200191505060405180910390f35b6000600260009054906101000a900473ffffffffffffffffffffffffffffffffffffffff16905090565b6103a561051e565b156103e557600260009054906101000a900473ffffffffffffffffffffffffffffffffffffffff1673ffffffffffffffffffffffffffffffffffffffff16ff5b565b6103ef61051e565b1561043c578073ffffffffffffffffffffffffffffffffffffffff166108fc479081150290604051600060405180830381858888f1935050505015801561043a573d6000803e3d6000fd5b505b50565b6060600080600080600180540381526020019081526020016000206001018054600181600116156101000203166002900480601f0160208091040260200160405190810160405280929190818152602001828054600181600116156101000203166002900480156104f15780601f106104c6576101008083540402835291602001916104f1565b820191906000526020600020905b8154815290600101906020018083116104d457829003601f168201915b50505050509250600080600180540381526020019081526020016000206000015491506001549050909192565b6000600260009054906101000a900473ffffffffffffffffffffffffffffffffffffffff1673ffffffffffffffffffffffffffffffffffffffff163373ffffffffffffffffffffffffffffffffffffffff1614905090565b606060008060008481526020019081526020016000206001018054600181600116156101000203166002900480601f0160208091040260200160405190810160405280929190818152602001828054600181600116156101000203166002900480156106235780601f106105f857610100808354040283529160200191610623565b820191906000526020600020905b81548152906001019060200180831161060657829003601f168201915b50505050509150600080848152602001908152602001600020600001549050915091565b6000600154905090565b600061065b61051e565b610687577fffffffffffffffffffffffffffffffffffffffffffffffffffffffffffffffff9050610719565b60a0825111156106b9577ffffffffffffffffffffffffffffffffffffffffffffffffffffffffffffffffe9050610718565b42600080600154815260200190815260200160002060000181905550816000806001548152602001908152602001600020600101908051906020019061070092919061071e565b50600160008154809291906001019190505550600090505b5b919050565b828054600181600116156101000203166002900490600052602060002090601f016020900481019282601f1061075f57805160ff191683800117855561078d565b8280016001018555821561078d579182015b8281111561078c578251825591602001919060010190610771565b5b50905061079a919061079e565b5090565b6107c091905b808211156107bc5760008160009055506001016107a4565b5090565b9056fea265627a7a72315820817231745ba4dc13e4526e0a794999bcac7ccef2ea0d23a79303cd5ffe9b586b64736f6c63430005100032",
  "source": "pragma solidity >=0.4.21 <0.6.0;\n\ncontract TweetAccount {\n\n\t// data structure of a single tweet\n\tstruct Tweet {\n\t\tuint timestamp;\n\t\tstring tweetString;\n\t}\n\n\t// \"array\" of all tweets of this account: maps the tweet id to the actual tweet\n\tmapping (uint => Tweet) _tweets;\n\n\t// total number of tweets in the above _tweets mapping\n\tuint _numberOfTweets;\n\n\t// \"owner\" of this account: only admin is allowed to tweet\n\taddress payable _adminAddress;\n\n\t// constructor\n\tconstructor() public {\n\t\t_numberOfTweets = 0;\n\t\t_adminAddress = msg.sender;\n\t}\n\n\t// returns true if caller of function (\"sender\") is admin\n\tfunction isAdmin() public view returns (bool) {\n\t\treturn msg.sender == _adminAddress;\n\t}\n\n\t// create new tweet\n\tfunction tweet(string memory tweetString) public returns (int result) {\n\t\tif (!isAdmin()) {\n\t\t\t// only owner is allowed to create tweets for this account\n\t\t\tresult = -1;\n\t\t} else if (bytes(tweetString).length > 160) {\n\t\t\t// tweet contains more than 160 bytes\n\t\t\tresult = -2;\n\t\t} else {\n\t\t\t_tweets[_numberOfTweets].timestamp = now;\n\t\t\t_tweets[_numberOfTweets].tweetString = tweetString;\n\t\t\t_numberOfTweets++;\n\t\t\tresult = 0; // success\n\t\t}\n\t}\n\n\tfunction getTweet(uint tweetId) public view returns (string memory tweetString, uint timestamp) {\n\t\t// returns two values\n\t\ttweetString = _tweets[tweetId].tweetString;\n\t\ttimestamp = _tweets[tweetId].timestamp;\n\t}\n\n\tfunction getLatestTweet() public view returns (string memory tweetString, uint timestamp, uint numberOfTweets) {\n\t\t// returns three values\n\t\ttweetString = _tweets[_numberOfTweets - 1].tweetString;\n\t\ttimestamp = _tweets[_numberOfTweets - 1].timestamp;\n\t\tnumberOfTweets = _numberOfTweets;\n\t}\n\n\tfunction getOwnerAddress() public view returns (address adminAddress) {\n\t\treturn _adminAddress;\n\t}\n\n\tfunction getNumberOfTweets() public view returns (uint numberOfTweets) {\n\t\treturn _numberOfTweets;\n\t}\n\n\t// other users can send donations to your account: use this function for donation withdrawal\n\tfunction adminRetrieveDonations(address payable receiver) public {\n\t\tif (isAdmin()) {\n\t\t\treceiver.transfer(address(this).balance);\n\t\t}\n\t}\n\n\tfunction adminDeleteAccount() public {\n\t\tif (isAdmin()) {\n\t\t\tselfdestruct(_adminAddress);\n\t\t}\n\t}\n}\n",
  "sourcePath": "/Users/yanxiangwang/dapp/jwang/hmy-tweet/contracts/TweetAccount.sol",
  "compiler": {
    "name": "solc",
    "version": "0.5.16+commit.9c3226ce.Emscripten.clang"
  },
  "schemaVersion": "3.2.0",
  "updatedAt": "2020-06-23T23:08:07.835Z",
  "devdoc": {
    "methods": {}
  },
  "userdoc": {
    "methods": {}
  }
}