{
  "contractName": "TweetRegistry",
  "abi": [
    {
      "inputs": [],
      "payable": false,
      "stateMutability": "nonpayable",
      "type": "constructor"
    },
    {
      "constant": false,
      "inputs": [
        {
          "internalType": "string",
          "name": "name",
          "type": "string"
        },
        {
          "internalType": "address",
          "name": "accountAddress",
          "type": "address"
        }
      ],
      "name": "register",
      "outputs": [
        {
          "internalType": "int256",
          "name": "result",
          "type": "int256"
        }
      ],
      "payable": false,
      "stateMutability": "nonpayable",
      "type": "function"
    },
    {
      "constant": true,
      "inputs": [],
      "name": "getNumberOfAccounts",
      "outputs": [
        {
          "internalType": "uint256",
          "name": "numberOfAccounts",
          "type": "uint256"
        }
      ],
      "payable": false,
      "stateMutability": "view",
      "type": "function"
    },
    {
      "constant": true,
      "inputs": [
        {
          "internalType": "string",
          "name": "name",
          "type": "string"
        }
      ],
      "name": "getAddressOfName",
      "outputs": [
        {
          "internalType": "address",
          "name": "addr",
          "type": "address"
        }
      ],
      "payable": false,
      "stateMutability": "view",
      "type": "function"
    },
    {
      "constant": true,
      "inputs": [
        {
          "internalType": "address",
          "name": "addr",
          "type": "address"
        }
      ],
      "name": "getNameOfAddress",
      "outputs": [
        {
          "internalType": "string",
          "name": "name",
          "type": "string"
        }
      ],
      "payable": false,
      "stateMutability": "view",
      "type": "function"
    },
    {
      "constant": true,
      "inputs": [
        {
          "internalType": "uint256",
          "name": "id",
          "type": "uint256"
        }
      ],
      "name": "getAddressOfId",
      "outputs": [
        {
          "internalType": "address",
          "name": "addr",
          "type": "address"
        }
      ],
      "payable": false,
      "stateMutability": "view",
      "type": "function"
    },
    {
      "constant": false,
      "inputs": [],
      "name": "unregister",
      "outputs": [
        {
          "internalType": "string",
          "name": "unregisteredAccountName",
          "type": "string"
        }
      ],
      "payable": false,
      "stateMutability": "nonpayable",
      "type": "function"
    },
    {
      "constant": false,
      "inputs": [
        {
          "internalType": "string",
          "name": "name",
          "type": "string"
        }
      ],
      "name": "adminUnregister",
      "outputs": [],
      "payable": false,
      "stateMutability": "nonpayable",
      "type": "function"
    },
    {
      "constant": false,
      "inputs": [
        {
          "internalType": "bool",
          "name": "registrationDisabled",
          "type": "bool"
        }
      ],
      "name": "adminSetRegistrationDisabled",
      "outputs": [],
      "payable": false,
      "stateMutability": "nonpayable",
      "type": "function"
    },
    {
      "constant": false,
      "inputs": [
        {
          "internalType": "address payable",
          "name": "accountAdmin",
          "type": "address"
        }
      ],
      "name": "adminSetAccountAdministrator",
      "outputs": [],
      "payable": false,
      "stateMutability": "nonpayable",
      "type": "function"
    },
    {
      "constant": false,
      "inputs": [],
      "name": "adminRetrieveDonations",
      "outputs": [],
      "payable": false,
      "stateMutability": "nonpayable",
      "type": "function"
    },
    {
      "constant": false,
      "inputs": [],
      "name": "adminDeleteRegistry",
      "outputs": [],
      "payable": false,
      "stateMutability": "nonpayable",
      "type": "function"
    }
  ],
  "bytecode": "0x608060405234801561001057600080fd5b5033600460006101000a81548173ffffffffffffffffffffffffffffffffffffffff021916908373ffffffffffffffffffffffffffffffffffffffff16021790555033600560006101000a81548173ffffffffffffffffffffffffffffffffffffffff021916908373ffffffffffffffffffffffffffffffffffffffff16021790555060006003819055506000600560146101000a81548160ff021916908315150217905550611219806100c56000396000f3fe608060405234801561001057600080fd5b50600436106100a95760003560e01c80633af41dc2116100715780633af41dc21461037b57806349f0c90d146103855780639b6d86d6146103c9578063b2dad25d146103f9578063e79a198f146104b6578063ec43eeb614610539576100a9565b80630cc04b55146100ae5780631e59c52914610169578063309e36ef14610258578063345e34161461027657806338ec6ba814610280575b600080fd5b610167600480360360208110156100c457600080fd5b81019080803590602001906401000000008111156100e157600080fd5b8201836020820111156100f357600080fd5b8035906020019184600183028401116401000000008311171561011557600080fd5b91908080601f016020809104026020016040519081016040528093929190818152602001838380828437600081840152601f19601f8201169050808301925050505050505091929192905050506105a7565b005b6102426004803603604081101561017f57600080fd5b810190808035906020019064010000000081111561019c57600080fd5b8201836020820111156101ae57600080fd5b803590602001918460018302840111640100000000831117156101d057600080fd5b91908080601f016020809104026020016040519081016040528093929190818152602001838380828437600081840152601f19601f820116905080830192505050505050509192919290803573ffffffffffffffffffffffffffffffffffffffff1690602001909291905050506107f3565b6040518082815260200191505060405180910390f35b610260610b38565b6040518082815260200191505060405180910390f35b61027e610b42565b005b6103396004803603602081101561029657600080fd5b81019080803590602001906401000000008111156102b357600080fd5b8201836020820111156102c557600080fd5b803590602001918460018302840111640100000000831117156102e757600080fd5b91908080601f016020809104026020016040519081016040528093929190818152602001838380828437600081840152601f19601f820116905080830192505050505050509192919290505050610c04565b604051808273ffffffffffffffffffffffffffffffffffffffff1673ffffffffffffffffffffffffffffffffffffffff16815260200191505060405180910390f35b610383610c97565b005b6103c76004803603602081101561039b57600080fd5b81019080803573ffffffffffffffffffffffffffffffffffffffff169060200190929190505050610d2a565b005b6103f7600480360360208110156103df57600080fd5b81019080803515159060200190929190505050610dc5565b005b61043b6004803603602081101561040f57600080fd5b81019080803573ffffffffffffffffffffffffffffffffffffffff169060200190929190505050610e39565b6040518080602001828103825283818151815260200191508051906020019080838360005b8381101561047b578082015181840152602081019050610460565b50505050905090810190601f1680156104a85780820380516001836020036101000a031916815260200191505b509250505060405180910390f35b6104be610f19565b6040518080602001828103825283818151815260200191508051906020019080838360005b838110156104fe5780820151818401526020810190506104e3565b50505050905090810190601f16801561052b5780820380516001836020036101000a031916815260200191505b509250505060405180910390f35b6105656004803603602081101561054f57600080fd5b8101908080359060200190929190505050611102565b604051808273ffffffffffffffffffffffffffffffffffffffff1673ffffffffffffffffffffffffffffffffffffffff16815260200191505060405180910390f35b600460009054906101000a900473ffffffffffffffffffffffffffffffffffffffff1673ffffffffffffffffffffffffffffffffffffffff163373ffffffffffffffffffffffffffffffffffffffff1614806106505750600560009054906101000a900473ffffffffffffffffffffffffffffffffffffffff1673ffffffffffffffffffffffffffffffffffffffff163373ffffffffffffffffffffffffffffffffffffffff16145b156107f05760006002826040518082805190602001908083835b6020831061068d578051825260208201915060208101905060208303925061066a565b6001836020036101000a038019825116818451168082178552505050505050905001915050908152602001604051809103902060009054906101000a900473ffffffffffffffffffffffffffffffffffffffff169050604051806020016040528060008152506000808373ffffffffffffffffffffffffffffffffffffffff1673ffffffffffffffffffffffffffffffffffffffff168152602001908152602001600020908051906020019061074492919061113f565b5060006002836040518082805190602001908083835b6020831061077d578051825260208201915060208101905060208303925061075a565b6001836020036101000a038019825116818451168082178552505050505050905001915050908152602001604051809103902060006101000a81548173ffffffffffffffffffffffffffffffffffffffff021916908373ffffffffffffffffffffffffffffffffffffffff160217905550505b50565b60008073ffffffffffffffffffffffffffffffffffffffff166002846040518082805190602001908083835b60208310610842578051825260208201915060208101905060208303925061081f565b6001836020036101000a038019825116818451168082178552505050505050905001915050908152602001604051809103902060009054906101000a900473ffffffffffffffffffffffffffffffffffffffff1673ffffffffffffffffffffffffffffffffffffffff16146108d9577fffffffffffffffffffffffffffffffffffffffffffffffffffffffffffffffff9050610b32565b60008060008473ffffffffffffffffffffffffffffffffffffffff1673ffffffffffffffffffffffffffffffffffffffff1681526020019081526020016000208054600181600116156101000203166002900490501461095b577ffffffffffffffffffffffffffffffffffffffffffffffffffffffffffffffffe9050610b31565b604083511061098c577ffffffffffffffffffffffffffffffffffffffffffffffffffffffffffffffffd9050610b30565b600560149054906101000a900460ff16156109c9577ffffffffffffffffffffffffffffffffffffffffffffffffffffffffffffffffc9050610b2f565b826000808473ffffffffffffffffffffffffffffffffffffffff1673ffffffffffffffffffffffffffffffffffffffff1681526020019081526020016000209080519060200190610a1b92919061113f565b50816002846040518082805190602001908083835b60208310610a535780518252602082019150602081019050602083039250610a30565b6001836020036101000a038019825116818451168082178552505050505050905001915050908152602001604051809103902060006101000a81548173ffffffffffffffffffffffffffffffffffffffff021916908373ffffffffffffffffffffffffffffffffffffffff1602179055508160016000600354815260200190815260200160002060006101000a81548173ffffffffffffffffffffffffffffffffffffffff021916908373ffffffffffffffffffffffffffffffffffffffff160217905550600360008154809291906001019190505550600090505b5b5b5b92915050565b6000600354905090565b600460009054906101000a900473ffffffffffffffffffffffffffffffffffffffff1673ffffffffffffffffffffffffffffffffffffffff163373ffffffffffffffffffffffffffffffffffffffff161415610c0257600460009054906101000a900473ffffffffffffffffffffffffffffffffffffffff1673ffffffffffffffffffffffffffffffffffffffff166108fc479081150290604051600060405180830381858888f19350505050158015610c00573d6000803e3d6000fd5b505b565b60006002826040518082805190602001908083835b60208310610c3c5780518252602082019150602081019050602083039250610c19565b6001836020036101000a038019825116818451168082178552505050505050905001915050908152602001604051809103902060009054906101000a900473ffffffffffffffffffffffffffffffffffffffff169050919050565b600460009054906101000a900473ffffffffffffffffffffffffffffffffffffffff1673ffffffffffffffffffffffffffffffffffffffff163373ffffffffffffffffffffffffffffffffffffffff161415610d2857600460009054906101000a900473ffffffffffffffffffffffffffffffffffffffff1673ffffffffffffffffffffffffffffffffffffffff16ff5b565b600460009054906101000a900473ffffffffffffffffffffffffffffffffffffffff1673ffffffffffffffffffffffffffffffffffffffff163373ffffffffffffffffffffffffffffffffffffffff161415610dc25780600560006101000a81548173ffffffffffffffffffffffffffffffffffffffff021916908373ffffffffffffffffffffffffffffffffffffffff1602179055505b50565b600460009054906101000a900473ffffffffffffffffffffffffffffffffffffffff1673ffffffffffffffffffffffffffffffffffffffff163373ffffffffffffffffffffffffffffffffffffffff161415610e365780600560146101000a81548160ff0219169083151502179055505b50565b60606000808373ffffffffffffffffffffffffffffffffffffffff1673ffffffffffffffffffffffffffffffffffffffff1681526020019081526020016000208054600181600116156101000203166002900480601f016020809104026020016040519081016040528092919081815260200182805460018160011615610100020316600290048015610f0d5780601f10610ee257610100808354040283529160200191610f0d565b820191906000526020600020905b815481529060010190602001808311610ef057829003601f168201915b50505050509050919050565b60606000803373ffffffffffffffffffffffffffffffffffffffff1673ffffffffffffffffffffffffffffffffffffffff1681526020019081526020016000208054600181600116156101000203166002900480601f016020809104026020016040519081016040528092919081815260200182805460018160011615610100020316600290048015610fed5780601f10610fc257610100808354040283529160200191610fed565b820191906000526020600020905b815481529060010190602001808311610fd057829003601f168201915b50505050509050604051806020016040528060008152506000803373ffffffffffffffffffffffffffffffffffffffff1673ffffffffffffffffffffffffffffffffffffffff168152602001908152602001600020908051906020019061105592919061113f565b5060006002826040518082805190602001908083835b6020831061108e578051825260208201915060208101905060208303925061106b565b6001836020036101000a038019825116818451168082178552505050505050905001915050908152602001604051809103902060006101000a81548173ffffffffffffffffffffffffffffffffffffffff021916908373ffffffffffffffffffffffffffffffffffffffff16021790555090565b60006001600083815260200190815260200160002060009054906101000a900473ffffffffffffffffffffffffffffffffffffffff169050919050565b828054600181600116156101000203166002900490600052602060002090601f016020900481019282601f1061118057805160ff19168380011785556111ae565b828001600101855582156111ae579182015b828111156111ad578251825591602001919060010190611192565b5b5090506111bb91906111bf565b5090565b6111e191905b808211156111dd5760008160009055506001016111c5565b5090565b9056fea265627a7a723158202b817c200a906234c218b3a70c7bdaf789d06898f4b70b7b306259db0c99001964736f6c63430005100032",
  "source": "pragma solidity >=0.4.21 <0.6.0;\n\ncontract TweetRegistry {\n\n\t// mappings to look up account names, account ids and addresses\n\tmapping (address => string) _addressToAccountName;\n\tmapping (uint => address) _accountIdToAccountAddress;\n\tmapping (string => address) _accountNameToAddress;\n\n\t// might be interesting to see how many people use the system\n\tuint _numberOfAccounts;\n\n\t// owner\n\taddress payable _registryAdmin;\n\n\t// allowed to administrate accounts only, not everything\n\taddress payable _accountAdmin;\n\n\t// if a newer version of this registry is available, force users to use it\n\tbool _registrationDisabled;\n\n\tconstructor() public {\n\t\t_registryAdmin = msg.sender;\n\t\t_accountAdmin = msg.sender; // can be changed later\n\t\t_numberOfAccounts = 0;\n\t\t_registrationDisabled = false;\n\t}\n\n\tfunction register(string memory name, address accountAddress) public returns (int result) {\n\t\tif (_accountNameToAddress[name] != address(0)) {\n\t\t\t// name already taken\n\t\t\tresult = -1;\n\t\t} else if (bytes(_addressToAccountName[accountAddress]).length != 0) {\n\t\t\t// account address is already registered\n\t\t\tresult = -2;\n\t\t} else if (bytes(name).length >= 64) {\n\t\t\t// name too long\n\t\t\tresult = -3;\n\t\t} else if (_registrationDisabled){\n\t\t\t// registry is disabled because a newer version is available\n\t\t\tresult = -4;\n\t\t} else {\n\t\t\t_addressToAccountName[accountAddress] = name;\n\t\t\t_accountNameToAddress[name] = accountAddress;\n\t\t\t_accountIdToAccountAddress[_numberOfAccounts] = accountAddress;\n\t\t\t_numberOfAccounts++;\n\t\t\tresult = 0; // success\n\t\t}\n\t}\n\n\tfunction getNumberOfAccounts() public view returns (uint numberOfAccounts) {\n\t\tnumberOfAccounts = _numberOfAccounts;\n\t}\n\n\tfunction getAddressOfName(string memory name) public view returns (address addr) {\n\t\taddr = _accountNameToAddress[name];\n\t}\n\n\tfunction getNameOfAddress(address addr) public view returns (string memory name) {\n\t\tname = _addressToAccountName[addr];\n\t}\n\n\tfunction getAddressOfId(uint id) public view returns (address addr) {\n\t\taddr = _accountIdToAccountAddress[id];\n\t}\n\n\tfunction unregister() public returns (string memory unregisteredAccountName) {\n\t\tunregisteredAccountName = _addressToAccountName[msg.sender];\n\t\t_addressToAccountName[msg.sender] = \"\";\n\t\t_accountNameToAddress[unregisteredAccountName] = address(0);\n\t\t// _accountIdToAccountAddress is never deleted on purpose\n\t}\n\n\tfunction adminUnregister(string memory name) public {\n\t\tif (msg.sender == _registryAdmin || msg.sender == _accountAdmin) {\n\t\t\taddress addr = _accountNameToAddress[name];\n\t\t\t_addressToAccountName[addr] = \"\";\n\t\t\t_accountNameToAddress[name] = address(0);\n\t\t\t// _accountIdToAccountAddress is never deleted on purpose\n\t\t}\n\t}\n\n\tfunction adminSetRegistrationDisabled(bool registrationDisabled) public {\n\t\t// currently, the code of the registry can not be updated once it is\n\t\t// deployed. if a newer version of the registry is available, account\n\t\t// registration can be disabled\n\t\tif (msg.sender == _registryAdmin) {\n\t\t\t_registrationDisabled = registrationDisabled;\n\t\t}\n\t}\n\n\tfunction adminSetAccountAdministrator(address payable accountAdmin) public {\n\t\tif (msg.sender == _registryAdmin) {\n\t\t\t_accountAdmin = accountAdmin;\n\t\t}\n\t}\n\n\tfunction adminRetrieveDonations() public {\n\t\tif (msg.sender == _registryAdmin) {\n\t\t\t_registryAdmin.transfer(address(this).balance);\n\t\t}\n\t}\n\n\tfunction adminDeleteRegistry() public {\n\t\tif (msg.sender == _registryAdmin) {\n\t\t\tselfdestruct(_registryAdmin); // this is a predefined function, it deletes the contract and returns all funds to the admin's address\n\t\t}\n\t}\n}",
  "sourcePath": "/Users/yanxiangwang/dapp/jwang/hmy-tweet/contracts/TweetRegistry.sol",
  "compiler": {
    "name": "solc",
    "version": "0.5.16+commit.9c3226ce.Emscripten.clang"
  },
  "schemaVersion": "3.2.0",
  "updatedAt": "2020-06-23T23:08:07.837Z",
  "devdoc": {
    "methods": {}
  },
  "userdoc": {
    "methods": {}
  }
}